:100000000C9434000C9446000C9446000C9446006A
:100010000C9446000C9446000C9446000C94460048
:100020000C9446000C9446000C9446000C94460038
:100030000C9446000C9446000C9446000C94460028
:100040000C9446000C9446000C9446000C94460018
:100050000C9446000C94B9000C9446000C94460095
:100060000C9446000C94460011241FBECFEFD8E03C
:10007000DEBFCDBF21E0A0E0B1E001C01D92A23003
:10008000B207E1F70E9484000C9452040C94000023
:10009000ECE7F0E0108280818064808380818F773C
:1000A0008083808180628083EAE7F0E01082808133
:1000B0008068808380818860808380818160808384
:1000C000808182608083808184608083EEE7F0E0BD
:1000D0008081816080838081826080838081846070
:1000E00080830895ECE7F0E09081907F892B8083F6
:1000F000EAE7F0E080818064808380917A0086FD69
:10010000FCCF809179000895F89414BC15BC10922E
:100110008000109281001092B0001092B1000E94F5
:1001200048004FE35CE968E070E080E00E942D0148
:1001300060E074E080E00E94F10178948FE39CE934
:100140000197F1F700C0000080E00E9472008093E8
:1001500001010E945A018FE39CE90197F1F700C069
:10016000000081E00E947200809300010E9413024F
:10017000E5CF1F920F920FB60F9211248F93EF933A
:10018000FF93EAE7F0E0808180618083FF91EF9147
:100190008F910F900FBE0F901F9018954F925F9206
:1001A0006F927F92AF92BF92CF92DF92EF92FF92C7
:1001B0000F931F93CF93DF93CDB7DEB728970FB67A
:1001C000F894DEBF0FBECDBF29013A01ED82FE8259
:1001D0000F8318870E94490269837A838B839C83EB
:1001E000A6019501698D7A8D8B8D9C8D0E944902A7
:1001F0009B01AC0169817A818B819C810E94E5031E
:1002000069837A838B839C83A3019201C801B70120
:100210000E9449029B01AC0169817A818B819C819A
:100220000E94B6029B01AC01C601B5010E944A02C0
:1002300028960FB6F894DEBF0FBECDBFDF91CF91E9
:100240001F910F91FF90EF90DF90CF90BF90AF90F4
:100250007F906F905F904F90089594B1926094B9A1
:10026000E0E8F0E0908192609083E1E8F0E0908136
:10027000986190835093870040938600882331F0E3
:10028000E0E8F0E08081806C808305C0E0E8F0E089
:100290008081806880836830710531F4E1E8F0E0A6
:1002A0008081826080830895E1E8F0E0808184604D
:1002B00080830895AF92BF92CF92DF92EF92FF9228
:1002C0000F931F93682F70E080E090E00E94570327
:1002D00025E42F9326E92F931F921F920F2EA12C16
:1002E000B12CF1E6CF2EF4E4DF2EF02DE12CF12C31
:1002F0000FE713E420E030E0A9010E94CE000F9048
:100300000F900F900F900E942803709389006093C4
:1003100088001F910F91FF90EF90DF90CF90BF90DA
:10032000AF9008954F925F926F927F92AF92BF927B
:10033000CF92DF92EF92FF920F931F93CF93DF93B1
:10034000CDB7DEB728970FB6F894DEBF0FBECDBF8E
:1003500029013A01ED82FE820F8318870E9449022B
:1003600069837A838B839C83A6019501698D7A8D3D
:100370008B8D9C8D0E9449029B01AC0169817A8121
:100380008B819C810E94E50369837A838B839C83A4
:10039000A3019201C801B7010E9449029B01AC016F
:1003A00069817A818B819C810E94B6029B01AC019C
:1003B000C601B5010E944A0228960FB6F894DEBF26
:1003C0000FBECDBFDF91CF911F910F91FF90EF90A6
:1003D000DF90CF90BF90AF907F906F905F904F90E5
:1003E000089594B1986094B9E0EBF0E09081936047
:1003F0009083882321F08081806C808305C0E0EBAE
:10040000F0E08081806880836115744031F4E1EB15
:10041000F0E08081876080830895E1EBF0E08081E7
:10042000816080830895AF92BF92CF92DF92EF9266
:10043000FF920F931F93682F70E080E090E00E947E
:10044000570322E42F9320E12F931F921F920F2E28
:10045000A12CB12CF0ECCF2EF0E4DF2EF02DE12C0E
:10046000F12C0FE713E420E030E0A9010E94920193
:100470000F900F900F900F900E9428036093B3008D
:100480001F910F91FF90EF90DF90CF90BF90AF90B2
:1004900008955058BB27AA270E9461020C94AB0311
:1004A0000E949D0338F00E94A40320F039F49F3F7E
:1004B00019F426F40C949A030EF4E095E7FB0C94DF
:1004C0009403E92F0E94BC0358F3BA17620773071D
:1004D0008407950720F079F4A6F50C94DE030EF45A
:1004E000E0950B2EBA2FA02D0B01B90190010C0144
:1004F000CA01A0011124FF27591B99F0593F50F45C
:10050000503E68F11A16F040A22F232F342F4427B3
:10051000585FF3CF469537952795A795F0405395AB
:10052000C9F77EF41F16BA0B620B730B840BBAF07B
:100530009150A1F0FF0FBB1F661F771F881FC2F7E6
:100540000EC0BA0F621F731F841F48F487957795FA
:100550006795B795F7959E3F08F0B0CF9395880FB4
:1005600008F09927EE0F9795879508950E94CA0283
:100570000C94AB030E94A40358F00E949D0340F02A
:1005800029F45F3F29F00C94940351110C94DF037C
:100590000C949A030E94BC0368F39923B1F355238A
:1005A00091F3951B550BBB27AA2762177307840786
:1005B00038F09F5F5F4F220F331F441FAA1FA9F31C
:1005C00035D00E2E3AF0E0E832D091505040E6950A
:1005D000001CCAF72BD0FE2F29D0660F771F881F6B
:1005E000BB1F261737074807AB07B0E809F0BB0B5E
:1005F000802DBF01FF2793585F4F3AF09E3F510572
:1006000078F00C9494030C94DF035F3FE4F3983E7E
:10061000D4F3869577956795B795F7959F5FC9F75A
:10062000880F911D9695879597F90895E1E0660FDB
:10063000771F881FBB1F621773078407BA0720F054
:10064000621B730B840BBA0BEE1F88F7E0950895BD
:100650000E94C40388F09F5798F0B92F9927B7518B
:10066000B0F0E1F0660F771F881F991F1AF0BA9556
:10067000C9F714C0B13091F00E94DE03B1E00895D3
:100680000C94DE03672F782F8827B85F39F0B93FC5
:10069000CCF3869577956795B395D9F73EF4909509
:1006A0008095709561957F4F8F4F9F4F0895E89487
:1006B00009C097FB3EF490958095709561957F4FAA
:1006C0008F4F9F4F9923A9F0F92F96E9BB27939558
:1006D000F695879577956795B795F111F8CFFAF468
:1006E000BB0F11F460FF1BC06F5F7F4F8F4F9F4F99
:1006F00016C0882311F096E911C0772321F09EE8F7
:10070000872F762F05C0662371F096E8862F70E05C
:1007100060E02AF09A95660F771F881FDAF7880F36
:100720009695879597F9089597F99F6780E870E007
:1007300060E008959FEF80EC089500240A94161657
:10074000170618060906089500240A9412161306BF
:10075000140605060895092E0394000C11F488234D
:1007600052F0BB0F40F4BF2B11F460FF04C06F5F69
:100770007F4F8F4F9F4F089557FD9058440F551F3F
:1007800059F05F3F71F04795880F97FB991F61F013
:100790009F3F79F087950895121613061406551F8A
:1007A000F2CF4695F1DF08C0161617061806991FF6
:1007B000F1CF86957105610508940895E894BB27EB
:1007C00066277727CB0197F908950E94F8030C94C8
:1007D000AB030E949D0338F00E94A40320F09523F0
:1007E00011F00C9494030C949A0311240C94DF03DD
:1007F0000E94BC0370F3959FC1F3950F50E0551F05
:10080000629FF001729FBB27F00DB11D639FAA2765
:10081000F00DB11DAA1F649F6627B00DA11D661FB4
:10082000829F2227B00DA11D621F739FB00DA11DD5
:10083000621F839FA00D611D221F749F3327A00D8F
:10084000611D231F849F600D211D822F762F6A2F2B
:1008500011249F5750409AF0F1F088234AF0EE0F90
:10086000FF1FBB1F661F771F881F91505040A9F7BD
:100870009E3F510580F00C9494030C94DF035F3F7E
:10088000E4F3983ED4F3869577956795B795F795F9
:10089000E7959F5FC1F7FE2B880F911D9695879571
:0808A00097F90895F894FFCFC9
:00000001FF
